:020000040000FA
:040000000128FE2FA6
:100DAA0008000800E32683270128F0002000111E0E
:100DBA00DB2E700823009A000000080023008C0133
:100DCA0022008C01023021008C00023027008C00A6
:100DDA0021009517033022009D00080064002000BE
:100DEA00911EF42E23001D19FC2E9D1C072FFF3087
:100DFA00F4007408F5000830F4007408F600753041
:100E0A000A270100230019080800F3007308860066
:100E1A0087010108DA26730A860087010108DA26A3
:100E2A00F201730A86008701010807397202031862
:100E3A00080072087307F1007108023E86008701F4
:100E4A000108DA260130F1007108F207162FF900BD
:100E5A00592F790886008701433FF00079088600F8
:100E6A008701443FF1007908023E860087010108A4
:100E7A00D62608007908023E86008701403FF00026
:100E8A00413FF1007908043E86008701403FF200A5
:100E9A00413FF3007908063E86008701403FF4008F
:100EAA00413FF500D5260800790A86008701010826
:100EBA00F6000330F636890B5F2F76081F39F700E4
:100ECA00F8017808003A03196B2F822F7708003A45
:100EDA000319822F013A0319822F033A0319822F29
:100EEA00013A0319822F073A0319822F013A03198B
:100EFA002E2F033A03193F2F822F0800A12FF32622
:100F0A002000A0002008A600A30126080739230212
:100F1A0003189E2FF3262000A0002308023E253E38
:100F2A0086008701200881000130A0002008A3075D
:100F3A008A2F25302C27220021001710F3262000A3
:100F4A00A0002008A5006400210017142000250332
:100F5A000319842F250A031D2508031DDF2F2508E1
:100F6A00DA26F3262000A0002008A6002608DA26A2
:100F7A002000A4012608073924020318DB2FF326D0
:100F8A002000A0002408023E253E86008701200892
:100F9A0081002408023E253E860087010108DA26E0
:100FAA0001302000A0002008A407BF2F250A031D36
:100FBA00A02F9E2F0130A5022508DA26F32620004D
:100FCA00A0002008A6002608DA262000A20126088A
:100FDA00073922020318A02FF3262000A0002008B8
:100FEA00A1002108DA2601302000A0002008A2076B
:060FFA00EC2F2000D72EB1
:020000040001F9
:04000E000431FC10AD
:00000001FF
