:020000040000FA
:040000000128FB2FA9
:100B5000F401F501701CB02D7208F4077308F53D1F
:100B60000130F235F30D890BB12D0130F136F00C67
:100B7000890BB62D70087104031DAA2D7508F100AC
:100B80007408F00008000C1623000C1622000C1547
:100B900021009E010D309D00000021009D149D1834
:100BA000CF2D9D0122000C1121000C1223000C12EC
:100BB00021001C08F1001B08F000080022008C1620
:100BC0008C1200008C168C1200008C168C12000007
:100BD0008C168C1200008C168C1200008C168C1255
:100BE0006300031E01003B001D102000B60FDE2D28
:100BF000B70FDE2D01008130220097007D302100EB
:100C00009D0080309E002200171F032E000021004F
:100C10009D149D18092E2200970121001D101B080C
:100C2000F0001C08F100F201F3010030F7000F3072
:100C3000F600FC30F5000030F400CF267108A70064
:100C40007008A600080023008C0122008C012100FE
:100C50008C0127008C01DF3026008C0021009513C9
:100C6000083024008C0001303B009C0002309E00C4
:100C70000030920001309100003094000230930067
:100C8000023096000530950001308F0080309B00C7
:100C90000B17210013168B130F309700080000303C
:100CA000FB000030FA000030F9000030F800701C42
:100CB000612E7408F8077508F93D7608FA3D770843
:100CC000FB3D0130F435F50DF60DF70D890B622E65
:100CD0000130F336F20CF10CF00C890B692E73081D
:100CE000720471047004031D572E7B08F3007A0808
:100CF000F2007908F1007808F0000800A101F71F60
:100D0000882EF609F709F60A0319F70AA101A10AC4
:100D1000F91F932EF809F909F80A0319F90A0130A5
:100D2000FA007A08A106A201A30176087704031944
:100D3000C22EA001A00AF71BA72E0130F635F70D31
:100D4000890B9E2E0130FA007A08A0079B2E0130F5
:100D5000A235A30D890BA82E77087902031DB22EA8
:100D600076087802031CB92E7608F8027708F93B5A
:100D700022140130F736F60C890BBA2E0130A0028E
:100D8000031DA72E21080319CA2EA209A309A20A2E
:100D90000319A30A2308F7002208F6000800200020
:100DA000A101F31FE02EF009F109F209F309F00A9D
:100DB0000319F10A0319F20A0319F30AA101A10A9E
:100DC000F71FF12EF409F509F609F709F40A0319DA
:100DD000F50A0319F60A0319F70A0130F800780832
:100DE000A1060030A5000030A4000030A3000030B0
:100DF000A200730872047104700403193A2FA00151
:100E0000A00AF31B0F2F0130F035F10DF20DF30D99
:100E1000890B042F0130F8007808A007012F01305A
:100E2000A235A30DA40DA50D890B102F7308770211
:100E3000031D242F72087602031D242F71087502EA
:100E4000031D242F70087402031C2F2F7008F40256
:100E50007108F53B7208F63B7308F73B221401302A
:100E6000F336F20CF10CF00C890B302F0130A0029C
:100E7000031D0F2F21080319482FA209A309A40954
:100E8000A509A20A0319A30A0319A40A0319A50AAA
:100E90002508F3002408F2002308F1002208F000DE
:100EA0000800FB252708B5002608B4003508803A5D
:100EB000A8008E302802031D5F2F11303402031C5E
:100EC000662F10302000B4000E30B5002000350829
:100ED000803AA8008A302802031D702FF0303402B7
:100EE0000318772FF0302000B4000A30B50010301E
:100EF0002000B407F530B53D2030F6000330F70090
:100F00003508F1003408F0003F30F2000030F30003
:100F1000A8257008903EF8000130713DF9007E264A
:100F20007608E03E210098002326C32570082000A3
:100F3000B0007108B100B201B3013308F300320808
:100F4000F2003108F1003008F0000030F700003006
:100F5000F6000130F500DF30F4004F267008A800DD
:100F60007108A9007208AA007308AB001030AB36F4
:100F7000AA0CA90CA80C890BB72F0830AC000230C2
:100F8000AD0028082C02AE0029082D3BAF002E082A
:100F90003B00950020002F083B00960001308F0099
:100FA00020003308F3003208F2003108F100300865
:100FB000F0000030F7000030F6001B30F50068301C
:100FC000F4004F267008A8007108A9007208AA0052
:100FD0007308AB001030AB36AA0CA90CA80C890B17
:100FE000EB2F2808453EB600E230293DB700853199
:100FF000DE25873101282000B601B7012000512FDE
:020000040001F9
:04000E001C39FC1885
:00000001FF
