:020000040000FA
:040000008A11112828
:10000800FE00030EF4000408F5000A08F600831247
:1000180003137F08F7008A1127288A1113288313EE
:100028004830FD000130FE000730FF003730840003
:100038008A111C21C801F901FA01FB01FC01FD012B
:1000480083018A11A5280108FF007F08F8008101B3
:10005800790887008628BE307802031C9928E93081
:100068007802031899280030FC000030FB000030AB
:10007800FA000030F900C801FD01FD0A9928013095
:10008800F0000310F90DFA0DFB0DFC0DF00B4528DF
:100098001E307802031C5A282B30780203185A287D
:1000A80079140130FF007F08C80764280E307802F1
:1000B800031C622815307802031C5528FD01992875
:1000C80020304806031D99287909F0007A09F100C3
:1000D8007B09F2007C09F30010300310F30CF20CDA
:1000E800F10CF00CFF3E031D712870087C06031DFF
:1000F800622879097A06031D62280230FF007F080A
:10010800FD0099287D08F000F1017108003A0319F3
:100118008E2862287008003A03192F28013A03191B
:100128004328033A0319992862288B107708FF009F
:1001380076088A0075088400740E8300FE0E7E0E11
:10014800090083161008CF3910389000031786016C
:10015800031387010130860081110108F839053839
:10016800810081128B1701130B169816181283122F
:100178009817831618151930990002307D06031D4B
:10018800C1287C088A11D7208A117B088A11D720B8
:100198008A117A088A11D7208A1179088A11D720FA
:1001A8008A11FD01C1288312B6002530840037303A
:1001B800A1000408A2001130A300210884008313C1
:1001C8000008A400A10A2208840024088000A20ACA
:1001D800A30BE1283608A10004300310A10CFF3E50
:1001E800031DF12821080F39253E840000088A11D3
:1001F80028218A1136080F39253E84008313000808
:100208008A112821080030343134323433343434FC
:10021800353436343734383439344134423443345D
:1002280044344534463400347E088A007F0882000E
:1002380018218A118000840A04087D0603190034F5
:10024800FF0A0319FE0A1C29A000200899000000D3
:0A025800831203130C1A08002C296E
:04400E00F53CFFFF7F
:00000001FF
