:020000040000FA
:0400000080317B28A8
:100008007E14803120001508F0007008F200950178
:100018000B19F2010B116428C3307202031C7828F3
:10002800F030720203187828C601C701C70A72089F
:10003800F00070082200A00078280130C835C90DEA
:10004800CA0DCB0D890B222820307202031C3F28D1
:100058002830720203183F287208F0004608213E33
:100068008600013087007008810048140130F000D4
:100078007008C607532810307202031C5128153027
:100088007202031851287208F0004608213E8600C3
:1000980001308700700881003A28C701782820308D
:1000A8004606031D78284A094B06031D51284809AE
:1000B8004906031D51280230F0007008C70078284F
:1000C80021004708F000F1017108003A03196D2872
:1000D80051287008003A03191028013A03192128F9
:1000E800033A0319782851288B107E1009008031B3
:1000F8007D28F901FA01A0308400003085002C30F9
:1001080087317E27803120308400013085002130FE
:1001180087317E277E1020008431E32C2100D9000E
:1001280020005A0886008701403FDC00413FDD007F
:100138005C0884005D0885001200253A031DD12A59
:100148005A08860087010130810741310318810A66
:100158002100A201A301F901FA01FF30A400FF3038
:10016800A500CC01CD01CF2879145A088600870153
:100178000130810741310318810ACF28F914B928C1
:100188007915B928F915B9287916B9280130210047
:10019800CC000030CD0021004C084D04031DFA2886
:1001A80020005A0886008701403FDC00413FDD00FF
:1001B8005C0884005D0885000008DE00DF015F0838
:1001C800003A0319E828CA285E08203A0319C62805
:1001D800033A0319C828083A0319C428063A031928
:1001E800B8281D3A0319C228CA28CF28791C002923
:1001F800FD30F905FF30FA0520005A08860087010E
:10020800403FDC00413FDD005C0884005D0885005C
:1002180012002A3A031D2E295A0886008701013048
:10022800810741310318810A5B08860087010108AC
:100238008400850102308107003F2100A200013FB0
:10024800A300A31F73297914A209A309A20A0319F9
:10025800A30A73295A0886008701403FA000413F3E
:10026800A10084314424803121082100A30020000A
:1002780020082100A200492920005A088600870189
:100288000130810741310318810A20005A0886008D
:100298008701403FDC00413FDD005C0884005D08C9
:1002A80085000008D03EDE00FF3003180030DF0074
:1002B80000305F020A3003195E0203186529013015
:1002C80066290030E000E10160082100CE0020002E
:1002D80061082100CF004E084F04031D402920006B
:1002E8005A0886008701403FDC00413FDD005C087A
:1002F80084005D0885001200783A031992295A088B
:1003080086008701403FDC00413FDD005C08840037
:100318005D0885001200583A031DEC295A0886002A
:100328008701403FDC00413FDD005C0884005D0838
:1003380085000008DE005E082100D80020005A0869
:10034800860087010130810741310318810A5B0863
:100358008600870101088400850102308107003F7B
:100368002100D000013FD100D201D301D401D50131
:10037800D601D70150082000B40021005108200000
:10038800B500210052082000B600210053082000C3
:10039800B700210054082000B800210055082000AB
:1003A800B900210056082000BA0021005708200093
:1003B800BB00210058082000DC005C08BC002100BC
:1003C80059088231F6223508DB003408DA000800C3
:1003D8005A0886008701403FF300413FF400873008
:1003E800F5008730F6000230F7000030F80085315C
:1003F8004E258031730874040319182A5A08860098
:100408008701403FF300413FF4008430F500873016
:10041800F6000230F7000030F80085314E258031B3
:1004280073087404031D9D2A5A0886008701403FFB
:10043800DC00413FDD0001305C0784005D080318E3
:100448005D0A85000008DE005E082100D800200053
:100458005A08860087010230810741310318810A52
:100468005B08860087010108840085010430810744
:10047800003FDC00013FDD00023FDE00033FDF00FC
:100488005C08E0005D08E1005E08E2005F08E30048
:10049800E401E501E601E70167082100D700200033
:1004A80066082100D600200065082100D50020003C
:1004B80064082100D400200063082100D300200034
:1004C80062082100D200200061082100D10020002C
:1004D80060082100D00050082000B4002100510815
:1004E8002000B500210052082000B6002100530862
:1004F8002000B700210054082000B800210055084A
:100508002000B900210056082000BA002100570831
:100518002000BB00210058082000DC005C08BC005B
:10052800210059088231F6223508DB003408DA0048
:1005380008005A0886008701403FDC00413FDD0083
:100548005C0884005D0885001200253A031DC62A50
:100558005A08860087010130810741310318810A52
:100568002530F4000030F500210059082000DC0097
:100578005C08F6008531EA2501302000DA000030F9
:10058800DB0008005A0886008701013081074131E5
:100598000318810ADA01DB0108005A08860087017E
:1005A800403FDC00413FDD005C0884005D088500B9
:1005B8000008DE00DF015E08F4005F08F500210096
:1005C80059082000E0006008F6008531EA258031EE
:1005D80020005A088600870101308107413103183D
:1005E800810AC02A2000CB002100A51BFF2AFD306C
:1005F800F905FF30FA052508803A2000BD00803053
:100608003D02031D0A2B0130210024020318122B7E
:1006180001302000C9000030CA001A2B210025082B
:100628002000CA00210024082000C9002100230856
:100638002000CD00210022082000CC00791E282BA4
:10064800FE30CC07FF30CD3D3408CE003508CF0052
:100658003608D0003708D1003808D2003908D3004E
:100668003A08D4003B08D5001F30D6000030D70028
:100678002100C501E72BFF302000D607FF30D73D0A
:100688000F304E05D80000304F05D9005908803A80
:10069800BD0080303D02031D532B0A305802031C55
:1006A800592B20005808573E5C2B20005808303E34
:1006B800D8000030593DD9003C08BF3EBD00FF308E
:1006C80003180030BE0000303E021A3003193D0204
:1006D8000318702B0130712B0030BF00C0013F0898
:1006E800C5004008C600450846040319A62B20305B
:1006F8005804BD0000305904BE003D089F3EBF00AD
:10070800FF303E3DC000003040021A3003193F025E
:100718000318902B0130912B0030C100C201410811
:10072800C7004208C800470848040319A62B5908FF
:10073800A1005808A0008631702682312108D9000E
:100748002008D8005808BD005608A63E8600870134
:100758003D088100FF30C907FF30CA3DFF30CC0794
:10076800FF30CD3D4E30860000308700403FBD0051
:10077800413FBE00423FBF00433FC000443FC1006D
:10078800453FC200463FC300473FC4000430200035
:10079800C436C30CC20CC10CC00CBF0CBE0CBD0CC3
:1007A800890BCB2B20004408D5004308D40042080D
:1007B800D3004108D2004008D1003F08D0003E08CD
:1007C800CF003D08CE0020005708803ABD00803099
:1007D8003D02031DF12B02305602031C172C20008A
:1007E8004E084F0450045104520453045404550451
:1007F800031D3F2B4A08803ABD0080303D02031D8F
:10080800072C0130490203183F2B20004D08803A7D
:10081800BD0080303D02031D132C01304C02031C27
:10082800172CF9183F2B791E322CFF302000D607E1
:10083800FF30D73D3C08BD005608A63E860087011C
:100848003D088100FF30D607FF30D73D3030BD006E
:100858005608A63E860087013D08810020005608FC
:10086800A63EBD003D08AC004D08AE004C08AD00EA
:100878004B088531A0252D08B5002C08B4000800C8
:10088800AD01AE01A601A701AC01AC0A20088400A5
:10089800210885001200203A0319642C20088400DE
:1008A800210885000008F73EA200FF300318003039
:1008B800A300003023020530031922020318AC01FB
:1008C8002C08A200A3012208A8002308A9002808D0
:1008D80029040319792C0130A0070030A13D482CC8
:1008E8000130A6000030A700AB2C200884002108A6
:1008F80085000008A200A3012308003A0319852CEB
:10090800AF2C22082B3A0319AB2C063A0319742C86
:10091800AF2C20088400210885000008A2002E08BA
:10092800F4002D08F3000A30F5000030F600863197
:10093800CB2684317408A40022087302A300031C88
:10094800A4032308303EAD000030243DAE00013042
:10095800A0070030A13D2008840021088500000878
:10096800D03EA200FF3003180030A300003023025D
:100978000A30031922020318C32C0130C42C00309A
:10098800A400A5012408AA002508AB002A082B0406
:10099800031D8D2C26082704031DDE2C2D09A2001B
:1009A8002E09A300A20A0319A30A2208A0002308FB
:1009B800A10008002E08A1002D08A00008002100B1
:1009C8001908FC39023899001908873968389900DC
:1009D80023008C01043021008C0025008C01FF309D
:1009E80026008C00FF3027008C0024008C01230097
:1009F8008D0121008D0125008D01FF3026008D001D
:100A0800FF3027008D0024008D0123008E01210076
:100A18008E0125008E01FF3026008E00FF30270052
:100A28008E0024008E0102303C00900014303D00FE
:100A38009F00210095111508F83905389500951281
:100A48008B1715130B1623009E161E129D171E15C5
:100A58009F1119309B00023021004706031D2F2DDE
:100A68006D30DA008730DB000230C63E8600870131
:100A7800403FDC00413FDD00423FDE00433FDF00F6
:100A8800873158278431C630873142278431210085
:100A9800C7012F2D7408A2007308A1007608A400CE
:100AA8007508A3000130F7020030F83B770A031DF0
:100AB800882D780A031D882DF301F4010800230806
:100AC800840024088500120003198F2D7708780404
:100AD80003198F2D23088400240885000008A0002E
:100AE800210884002208850000082006031D8F2D98
:100AF8000130A1070030A23D0130A3070030A43D1A
:100B08000130F7020030F83B2108840022088500F4
:100B18001200031D632D21088400220885000008A7
:100B2800A000230884002408850000082002F300A0
:100B3800F401031CF4030800B300791CAB2D33083F
:100B4800F8007808F7002C0886314C268531AE1B52
:100B5800B22D2E08B2002D08B100B42DB101B2019A
:100B6800AF01B0013008803AF8003208803A7802C4
:100B7800031DC02D31082F020318D42D2030F40096
:100B88000030F50020003308F8007808F6008531B9
:100B9800EA25853101302000AF070030B03DB62D81
:100BA8007918DF2D20003308F8007808F7002C08A2
:100BB80086314C26853120002C088631FD263108E7
:100BC8007307AC003208743DAD0008007608031DB9
:100BD8007608031DF32D74088731762708007608F8
:100BE800033E86008701160001040319162E7608B5
:100BF800033E86008701403FA000413FA100760ADE
:100C080086008701403FA200413FA3002308803AA5
:100C1800A4002108803A2402031D142E2008220271
:100C280003180800760A86008701013081074131E0
:100C38000318810A0800ED006908EF006808EE0053
:100C48002100A001A10120006E0884006F08850022
:100C580012000319432E6E30EB006B08DA006A08A5
:100C6800EC006C08DB006D088031922086315A0850
:100C78002100A00720005B082100A13D272E2100AC
:100C880021082000E900210020082000E8000800D1
:100C9800AB00A901AA0129082B07A5002508860091
:100CA80087010108A6002608A800280803190800DB
:100CB8002808A500A6012508F4002608F5007708ED
:100CC800A7002708F6008531EA2586310130200083
:100CD800A9070030AA3D4F2E20089F3EA200FF30F2
:100CE800213DA300003023021A3003192202031801
:100CF8007F2E0130802E0030A400A5012408A60014
:100D08002508A70026082704031908005F302005D6
:100D1800A00000302105A100080020307304200045
:100D2800A00000307404A10020089F3EA200FF30FC
:100D3800213DA300003023021A30031922020318B0
:100D4800A72E0130A82E0030A400A5012408F30026
:100D58002508F4000800F701F70A20307306740428
:100D68000319C32E7308F73EF500FF30743DF600F3
:100D7800003076020530031975020318F701770869
:100D8800F500F6017508F3007608F4000800F7018D
:100D9800F801731CD32E7508F7077608F83D013063
:100DA800F535F60D890BD42E0130F436F30C890B8A
:100DB800D92E73087404031DCD2E7808F400770823
:100DC800F300080073089F3EF500FF30743DF600FD
:100DD800003076021A30031975020318F52E013017
:100DE800F62E0030F700F8017708F3007808F400D1
:100DF8000800F7007708F5007508F6007708860000
:100E08008701010803190D2F0130F5007508F70750
:100E1800022F76087702F300F401F31BF4030800AD
:100E28007308BF3EF500FF30743DF60000307602CF
:100E38001A30031975020318232F0130242F0030AC
:100E4800F700F8017708F3007808F4000800730841
:100E5800D03EF500FF30743DF600003076020A30CF
:100E68000319750203183A2F01303B2F0030F700A1
:100E7800F8017708F3007808F4000800F500750811
:100E8800033E860087010108F300F4017408003A64
:100E980003194F2F572F7308073A0319572F683A2A
:100EA8000319572F572F0800DC30E0006008E300D3
:100EB8005B082000E90021005A082000E800E33020
:100EC8002100E00060082000EA00003086311F267B
:100ED8000800303478342534303438346C3478347D
:100EE8000A340034F300111E772F730823009A0088
:100EF80000000800640080010131890B7F2F003455
:0C0F08006C34583400346C3478340034FD
:020000040001F9
:04000E00E421FF3EAC
:00000001FF
