:020000040000FA
:0400000080317B28A8
:100008007E14803120001508F0007008F200950178
:100018000B19F2010B116428C3307202031C7828F3
:10002800F030720203187828A001A101A10A720811
:10003800F00070082200A00078280130A235A30D36
:10004800A40DA50D890B222820307202031C3F281D
:100058002830720203183F287208F0002008213E59
:100068008600013087007008810022140130F000FA
:100078007008A007532810307202031C512815304D
:100088007202031851287208F0002008213E8600E9
:1000980001308700700881003A28A10178282030B3
:1000A8002006031D782824092506031D5128220946
:1000B8002306031D51280230F0007008A10078289B
:1000C80021002108F000F1017108003A03196D2898
:1000D80051287008003A03191028013A03192128F9
:1000E800033A0319782851288B107E1009008031B3
:1000F8007D28F430840085308500CC3086000030BF
:1001080087001130863114268031F801F901FA018F
:10011800A0308400003085002C3086311A268031CA
:100128002030840001308500213086311A267E1067
:1001380020008431812CC7003A08CE003B08CF004C
:100148003C08D0003D08D1003E08D2003F08D3004B
:100158004008D4004108D5004E30860000308700A2
:10016800473FC200C21FBA280130BB280030200018
:10017800C300C4014308CC004408CD004C084D041A
:100188000319E428CE09CF09D009D109D209D30926
:10019800D409D509CE0A031DE428CF0A031DE42893
:1001A800D00A031DE428D10A031DE428D20A031D3E
:1001B800E428D30A031DE428D40A031DE428D50A39
:1001C8002100AB1BEB28FD30F805FF30F9052B08A3
:1001D800803A2000C20080304202031DF628013018
:1001E80021002A020318FE2801302000C800003030
:1001F800C900062921002B082000C90021002A086F
:100208002000C800210029082000CB002100280870
:100218002000CA004C084D04031D1429781D182914
:10022800FF30CA07FF30CB3D1F30D6000030D70063
:100238002100CB01A82920004E084F045004510486
:100248005204530454045504031D42294908803AB2
:10025800C20080304202031D3329013048020318CE
:10026800422920004B08803AC20080304202031D18
:100278003F2901304A020318F81CB429FF30200036
:10028800D607FF30D73D0A30A000A101A201A30183
:10029800A401A501A601A7014E08A8004F08A900BE
:1002A8005008AA005108AB005208AC005308AD0032
:1002B8005408AE005508AF008231D722803121089A
:1002C800F7002008F6008531B02580317608303EE9
:1002D8002000C2005608AC3E860087014208810013
:1002E800FF30C807FF30C93DFF30CA07FF30CB3D9C
:1002F8000A30A000A101A201A301A401A501A60141
:10030800A7014E08A8004F08A9005008AA005108E4
:10031800AB005208AC005308AD005408AE005508B5
:10032800AF008131E22180312008CE002108CF00C2
:100338002208D0002308D1002408D2002508D300C1
:100348002608D4002708D50020005708803AC200A4
:1003580080304202031DB2290130560203181F29BA
:1003680020004C084D04031DBB29781DD129FF30FE
:10037800D607FF30D73D4C084D04031DC5292B3047
:10038800C6292D30C5000030C6004508C2005608F1
:10039800AC3E86008701420881005608AC3EC20088
:1003A8004208AC004B08AE004A08AD00470884314B
:1003B800E0242D08BB002C08BA000800B101203049
:1003C800860000308700473FF300F31F0D2A200006
:1003D800A009A109A209A309A409A509A609A709B1
:1003E800A00A031D0A2AA10A031D0A2AA20A031D3C
:1003F8000A2AA30A031D0A2AA40A031D0A2AA50A0F
:10040800031D0A2AA60A031D0A2AA70A2000B10109
:10041800B10A2830860000308700473FF300F31FF9
:10042800392A2000A809A909AA09AB09AC09AD090C
:10043800AE09AF09A80A031D342AA90A031D342AE4
:10044800AA0A031D342AAB0A031D342AAC0A031D69
:10045800342AAD0A031D342AAE0A031D342AAF0A12
:100468000130F30073082000B106323086000030F6
:1004780087000830F30000301E00F30B402A2000EC
:100488002008210422042304240425042604270424
:100498000319A42AB001B00AA71B5F2AA035A10D31
:1004A800A20DA30DA40DA50DA60DA70D0130F300F7
:1004B8007308B007502AB235B30DB40DB50DB60D9B
:1004C800B70DB80DB90D27082F02031D852A260878
:1004D8002E02031D852A25082D02031D852A2408BE
:1004E8002C02031D852A23082B02031D852A2208B6
:1004F8002A02031D852A21082902031D852A2008AE
:100508002802031C982A2008A8022108A93B2208CF
:10051800AA3B2308AB3B2408AC3B2508AD3B260887
:10052800AE3B2708AF3B3214A736A60CA50CA40C8B
:10053800A30CA20CA10CA00C0130B002031D5F2A71
:1005480031080319C52AB209B309B409B509B609AE
:10055800B709B809B909B20A031DC52AB30A031DA8
:10056800C52AB40A031DC52AB50A031DC52AB60A39
:10057800031DC52AB70A031DC52AB80A031DC52AC3
:10058800B90A20003208A0003308A1003408A200EC
:100598003508A3003608A4003708A5003808A600C7
:1005A8003908A7000800F5012830860000308700C8
:1005B800473FF300F31F012B2000A809A909AA0946
:1005C800AB09AC09AD09AE09AF09A80A031DFF2A9A
:1005D800A90A031DFF2AAA0A031DFF2AAB0A031D45
:1005E800FF2AAC0A031DFF2AAD0A031DFF2AAE0A23
:1005F800031DFF2AAF0AF501F50A203086000030F6
:100608008700473FF300F31F282B2000A009A1090A
:10061800A209A309A409A509A609A709A00A031DF7
:10062800282BA10A031D282BA20A031D282BA30A85
:10063800031D282BA40A031D282BA50A031D282BFC
:10064800A60A031D282BA70A20002008210422043B
:10065800230424042504260427040319802BF40109
:10066800F40AA71B442BA035A10DA20DA30DA40DC0
:10067800A50DA60DA70D0130F3007308F407352B5F
:1006880027082F02031D622B26082E02031D622B4A
:1006980025082D02031D622B24082C02031D622B42
:1006A80023082B02031D622B22082A02031D622B3A
:1006B80021082902031D622B20082802031C742B21
:1006C8002008A8022108A93B2208AA3B2308AB3B23
:1006D8002408AC3B2508AD3B2608AE3B2708AF3BBA
:1006E800A736A60CA50CA40CA30CA20CA10CA00C5C
:1006F8000130F402031D442B75080319A12BA80926
:10070800A909AA09AB09AC09AD09AE09AF09A80A3C
:10071800031DA12BA90A031DA12BAA0A031DA12BA6
:10072800AB0A031DA12BAC0A031DA12BAD0A031DA7
:10073800A12BAE0A031DA12BAF0A20002808A00098
:100748002908A1002A08A2002B08A3002C08A4004D
:100758002D08A5002E08A6002F08A7000800E7000E
:10076800580886008701403FDA00413FDB005A08FD
:1007780084005B0885001200253A031D5E2C58088A
:10078800860087010130810741310318810A210061
:10079800A801A901F801F901FF30AA00FF30AB0058
:1007A8002000580886008701403FDA00413FDB00FF
:1007B8005A0884005B0885001200643A0319F32B79
:1007C800580886008701403FDA00413FDB005A089D
:1007D80084005B0885001200693A031D2C2C580818
:1007E800860087010130810741310318810A5908C1
:1007F8008600870101088400850102308107003FD7
:10080800DA00013FDB005A08DF005B08E000890DD1
:10081800893B8909E100E200E300E400E500E60025
:100828005F08BA006008BB006108BC006208BD0030
:100838006308BE006408BF006508C0006608C10000
:10084800670880319F203B08D9003A08D800080083
:10085800580886008701403FDA00413FDB005A080C
:1008680084005B0885001200253A031D532C5808A4
:10087800860087010130810741310318810A25303C
:10088800F4000030F5006708DA005A08F6008531F0
:100898002A2501302000D8000030D9000800580867
:1008A800860087010130810741310318810AD80188
:1008B800D9010800580886008701403FDA00413F07
:1008C800DB005A0884005B0885000008DC00DD01B5
:1008D8005C08F4005D08F5006708DE005E08F600B5
:1008E80085312A2583312000580886008701013088
:1008F800810741310318810A4D2C21001908FC3960
:1009080002389900190887396838990023008C0142
:10091800043021008C0024008C0123008D0121006B
:100928008D0124008D0123008E0121008E01951177
:100938001508F8390538950095128B1715130B16FD
:1009480023009E161E129D171E159F1100309C0035
:1009580019309B00023021002106031DAE2CE9014D
:10096800EA010D302100DD008630DE006A08E00073
:100978006908DF006908203E860001308700010809
:10098800E700E8016708E1006808E2008531DF2533
:10099800843101302100E9070030EA3D6A08803AD5
:1009A800E70080306702031DDB2C21306902031C3D
:1009B800B52C2100A101AE2CB400781CEB2C340816
:1009C800AF002F08F7002C0885318C258431AE1B29
:1009D800F22C2E08B3002D08B200F42CB201B3019A
:1009E800B001B1013108803AAF003308803A2F02D4
:1009F800031D002D320830020318142D2030F40096
:100A08000030F50020003408AF002F08F6008531CB
:100A18002A25843101302000B0070030B13DF62C82
:100A280078181F2D20003408AF002F08F7002C0875
:100A380085318C25843120002C088531C825320861
:100A48007307AC003308743DAD0008007608031D39
:100A58007608031D332D74088631052608007608AC
:100A6800033E86008701160001040319562D7608F7
:100A7800033E86008701403FA000413FA100760A5F
:100A880086008701403FA200413FA3002308803A27
:100A9800A4002108803A2402031D542D20082202B4
:100AA80003180800760A8600870101308107413162
:100AB8000318810A0800ED006908EF006808EE00D5
:100AC8002100A601A70120006E0884006F08850098
:100AD80012000319832D6E30EB006B08D8006A08EA
:100AE800EC006C08D9006D088331B32385315808B0
:100AF8002100A607200059082100A73D672D2100E5
:100B080027082000E900210026082000E800080046
:100B1800AB00A901AA0129082B07A5002508860012
:100B280087010108A6002608A8002808031908005C
:100B38002808A500A6012508F4002608F50077086E
:100B4800A7002708F60085312A25853101302000C5
:100B5800A9070030AA3D8F2D7708803AB000803071
:100B68003002031DB92D01307602031808007609FA
:100B78002000B0007709B100B00A0319B10A3008A3
:100B8800F6003108F7000800F7007708F500750847
:100B9800F60077088600870101080319D82D01306F
:100BA800F5007508F707CD2D76087702F300F401F4
:100BB800F31BF4030800DF30E3006308E6005E0877
:100BC8002000E90021005D082000E800E63021004F
:100BD800E30063082000EA00003085315F25080043
:100BE80030343134323433343434353436343734C1
:100BF8003834393441344234433444344534463447
:100C08000034F300111E062E730823009A0000001A
:100C18000800253464342034253464340A3400341C
:100C2800FE0012001E00FE0B152E00346400800129
:080C38000131890B1B2E003471
:020000040001F9
:04000E00C431FF3FBB
:00000001FF
