:020000040000FA
:040000008031122811
:100008007E1480314E01101C10280130F000700859
:100018004001DE074E0110107E10090080311428BF
:10002800A3308400823085004E308600003087007F
:1000380010308231D222DE017E1040018131252923
:100048008B13400118101A121A169A169A124B019D
:100058009E139D019C0144010E108D018C010E140C
:100068004B019E1740010C101A304001A1005E3070
:10007800A0006D30890B3E28A00B3E28A10B3E281E
:10008800003240010C144B019E1344010E10400134
:100098000E080F39A000A101A201A3014B011C0801
:1000A8004001A400A501A601A7010430A435A50DAF
:1000B800A60DA70D890B5A284B011D084001A80061
:1000C800A901AA01AB010C30A835A90DAA0DAB0DE9
:1000D800890B682844010C084001AC00AD01AE0151
:1000E800AF011430AC35AD0DAE0DAF0D890B7628D0
:1000F80044010D084001B000B101B201B3011C3048
:10010800B035B10DB20DB30D890B84283008AC049D
:100118003108AD043208AE043308AF042C08A80433
:100128002D08A9042E08AA042F08AB042808A40443
:100138002908A5042A08A6042B08A70420082404D3
:10014800F10021082504F20022082604F300230800
:100158002704F40008004001B9013B30C5009A307B
:10016800C400CA30C3000030C2004508031DC628B9
:100178004408031DC6284308031DC628023042024E
:10018800031C20293808A8003708A7003608A6004D
:100198003508A5004508AC004408AB004308AA0090
:1001A8004208A9008131D2218031400125308600E2
:1001B800003087003A308400003085000830FC00A9
:1001C80016001A00FC0BE4283D083C043B043A04E2
:1001D800031939080319F728B901B90A3A08303E52
:1001E8008231C322803104303A3E86008701403F85
:1001F8004001B500413FB600423FB700433FB80059
:100208000030F4000030F3000030F2000A30F10052
:100218004508F8004408F7004308F6004208F500CE
:1002280081317F21803174084001C5007308C40002
:100238007208C3007108B8283508303E8231C322DD
:10024800080082311A2281314001CC01CD010030F1
:10025800F100F2008231B322813140014D08F200F1
:100268004C08F1008231CB22813180312420813148
:1002780074084001C9007308C8007208C7007108F3
:10028800C6004C08B5004D08B600B701B80180316A
:10029800AF20813120308231C322813100304001CA
:1002A800B8000030B7000030B6000030B50080312B
:1002B800AF20813120308231C32281314001490889
:1002C800B8004808B7004708B6004608B5008031AE
:1002D800AF2081310A308231C3228131013040019F
:1002E800CC070030CD3D04304D02003003194C02DC
:1002F800031828292B2900304001A3000030A20050
:100308000030A1000030A000740873047204710466
:100318000319C929A401A40AF41B9E290130F13547
:10032800F20DF30DF40D890B93290130F9007908CA
:10033800A40790290130A035A10DA20DA30D890BAA
:100348009F2974087802031DB32973087702031DD7
:10035800B32972087602031DB32971087502031CBC
:10036800BE297108F5027208F63B7308F73B74085A
:10037800F83B20140130F436F30CF20CF10C890B25
:10038800BF290130A402031D9E292308F400220876
:10039800F3002108F2002008F100080040012C08B1
:1003A800F4002B08F3002A08F2002908F1002808B5
:1003B800F8002708F7002608F6002508F50081311F
:1003C8007F21813174084001B0007308AF007208C2
:1003D800AE007108AD002C08F4002B08F3002A08C1
:1003E800F2002908F1002808F8002708F700260875
:1003F800F6002508F5008231612281317408400138
:10040800B4007308B3007208B2007108B1002D304F
:1004180086000030870025308400003085000830D1
:10042800FB0016001A00FB0B152A0800FE304001DD
:100438009200F83093008F3094009501FC309600BC
:100448007E01B801C301CE010F30A6007D014B0823
:10045800C0391738CB0042019D171E129E161D1673
:100468001E159F1500309C002A309B0017307E0116
:10047800990018309A0043011A08F03901389A0097
:100488009A161A121917400119147D011108C0395A
:10049800043891004B011E16F0309E051F309F0551
:1004A8001F16F0309F0544011108F03909389100F2
:1004B800CF308E050E158F1308007408730472046C
:1004C800710403199A2AFA01FA0AF41B772A0130EF
:1004D800F135F20DF30DF40D890B6C2A0130F9009A
:1004E8007908FA07692A74087802031D852A7308AF
:1004F8007702031D852A72087602031D852A710872
:100508007502031C8F2A7108F5027208F63B7308FE
:10051800F73B7408F83B0130F436F30CF20CF10C9D
:10052800890B902A0130FA02031D772A7808F40013
:100538007708F3007608F2007508F10008003034F7
:10054800313432343334343435343634373438345F
:100558003934613462346334643465346634400158
:10056800191072080F39303843019600191CBA2A3D
:1005780071089600191CBE2A400119140800F100E0
:100588004E010F1EC42A710842019A000800710822
:1005980040019B00720803399C000800FE0012000D
:0805A8001E00FE0BD32A0034F3
:020000040001F9
:0A000E00FF3FFF3F9F3FFF3FFF3F12
:00000001FF
