:020000040000FA
:040000008031122811
:100008007E1480314E01101C10280130F000700859
:100018004001EF074E0110107E10090080311428AE
:100028003430840080308500D0308600243087004A
:100038000330FF00203088313C2080315830840064
:1000480088308500D8308600003087000030FF00F7
:10005800103088313C20EF017E1040018B31422B5B
:100068005034003454340034593400345D3400348E
:1000780062340034663400346B3400346F34003436
:1000880073340034783400347C34003481340034E0
:1000980085340034893400348E340034923400348A
:1000A800973400349B3400349F340034A434003433
:1000B800A8340034AC340034B1340034B5340034DE
:1000C800B9340034BE340034C2340034C634003489
:1000D800CB340034CF340034D3340034D834003433
:1000E800DC340034E0340034E5340034E9340034DE
:1000F800ED340034F2340034F6340034FA34003489
:10010800FF34003403340134073401340C3401342F
:100118001034013414340134193401341D340134D9
:1001280021340134263401342A3401342E34013484
:1001380033340134373401343B340134403401342E
:1001480044340134483401344D34013451340134D9
:10015800563401345A3401345E3401346334013482
:10016800673401346B34013470340134743401342D
:10017800793401347D3401348134013486340134D6
:100188008A3401348F340134933401349734013480
:100198009C340134A0340134A5340134A934013429
:1001A800AE340134B2340134B7340134BB340134D1
:1001B800C0340134C4340134C9340134CD34013479
:1001C800D2340134D6340134DB340134DF34013421
:1001D800E4340134E8340134ED340134F2340134C8
:1001E800F6340134FB340134FF340134043402346E
:1001F800093402340D340234123402341734023410
:100208001B340234203402342534023429340234B5
:100218002E34023433340234383402343C34023459
:1002280041340234463402344B34023450340234FC
:1002380054340234593402345E34023463340234A0
:10024800683402346D340234723402347734023440
:100258007B34023480340234853402348A340234E4
:100268008F34023494340234993402349E34023484
:10027800A4340234A9340234AE340234B334023420
:10028800B8340234BD340234C2340234C7340234C0
:10029800CD340234D2340234D7340234DC3402345C
:1002A800E2340234E7340234EC340234F1340234F8
:1002B800F7340234FC340234013403340734033491
:1002C8000C34033412340334173403341D34033428
:1002D80022340334283403342D34033433340334C0
:1002E800383403343E340334433403344934033458
:1002F8004F340334543403345A34033460340334ED
:10030800663403346B340334713403347734033480
:100318007D34033483340334893403348E34033412
:10032800943403349A340334A0340334A6340334A5
:10033800AC340334B2340334B8340334BF34033434
:10034800C5340334CB340334D1340334D7340334C1
:10035800DD340334E4340334EA340334F03403344E
:10036800F7340334FD340334033404340A340434D6
:1003780010340434173404341D340434243404345D
:100388002A34043431340434373404343E340434E5
:10039800453404344B34043452340434593404346A
:1003A80060340434663404346D34043474340434EE
:1003B8007B3404348234043489340434903404346F
:1003C800973404349E340434A5340434AC340434EF
:1003D800B3340434BA340434C2340434C93404346D
:1003E800D0340434D7340434DF340434E6340434E9
:1003F800ED340434F5340434FC3404340434053462
:100408000B340534133405341A34053422340534D6
:100418002A3405343134053439340534413405344B
:1004280049340534513405345834053460340534BE
:100438006834053470340534783405348034053430
:10044800883405349034053499340534A13405349E
:10045800A9340534B1340534BA340534C23405340A
:10046800CA340534D3340534DB340534E434053474
:10047800EC340534F5340534FD34053406340634DB
:100488000F3406341734063420340634293406343D
:10049800323406343B340634443406344D3406349E
:1004A800563406345F3406346834063471340634FE
:1004B8007A340634833406348C340634963406345D
:1004C8009F340634A8340634B2340634BB340634B8
:1004D800C5340634CE340634D8340634E23406340F
:1004E800EB340634F5340634FF3406340834073464
:1004F800123407341C3407342634073430340734B4
:100508003A340734443407344E3407345834073403
:10051800633407346D34073477340734813407344F
:100528008C34073496340734A1340734AB34073499
:10053800B6340734C0340734CB340734D6340734E0
:10054800E1340734EB340734F63407340134083423
:100558000C34083417340834223408342D34083461
:1005680038340834433408344F3408345A3408349F
:1005780065340834713408347C34083488340834D9
:10058800933408349F340834AA340834B634083411
:10059800C2340834CE340834D9340834E534083445
:1005A800F1340834FD340834093409341534093475
:1005B800223409342E3409343A340934463409349F
:1005C800533409345F3409346B34093478340934CA
:1005D80085340934913409349E340934AB340934F0
:1005E800B7340934C4340934D1340934DE34093415
:1005F800EB340934F834093405340A3412340A3433
:1006080020340A342D340A343A340A3448340A344B
:1006180055340A3463340A3470340A347E340A3464
:100628008B340A3499340A34A7340A34B5340A347A
:10063800C3340A34D1340A34DF340A34ED340A348A
:10064800FB340A3409340B3417340B3426340B3496
:1006580034340B3443340B3451340B3460340B349E
:100668006E340B347D340B348C340B349A340B34A5
:10067800A9340B34B8340B34C7340B34D6340B34A8
:10068800E5340B34F4340B3404340C3413340C34A4
:1006980022340C3432340C3441340C3451340C349C
:1006A800400145088039CA004A08CF004535CA00CC
:1006B8004A08D500C41B551455080319702B550A50
:1006C800031D6E2B0030C5000030C4000030C3008D
:1006D8000030C200C417782B0030C5000030C400B9
:1006E8000030C3000030C20049088039CA004A08F7
:1006F800CF064935CA004A08D400C81B5414540808
:100708000319932B540A031D912B0030C9000030A4
:10071800C8000030C7000030C600C8179B2B003047
:10072800C9000030C8000030C7000030C6005408B7
:10073800031D5508031DA92B0030C5000030C40057
:100748000030C3000030C20008004208CA004A084E
:10075800F100480888316820833172084001DB00C5
:100768007108DA005A08CA00CB01CC01CD014D0846
:10077800D3004C08D2004B08D1004A08D0005B08CF
:10078800CA00CB01CC01CD014D08D9004C08D800D6
:100798004B08D7004A08D6004308CA004A08F100A7
:1007A800470888316820833172084001DB007108EE
:1007B800DA005A08CA00CB01CC01CD014A08D0079B
:1007C8004B08D13D4C08D23D4D08D33D5B08CA00CB
:1007D800CB01CC01CD014A08D6074B08D73D4C08C0
:1007E800D83D4D08D93D4408CA004A08F1004608DA
:1007F80088316820833172084001DB007108DA0013
:100808005A08CA00CB01CC01CD014A08D0074B08D1
:10081800D13D4C08D23D4D08D33D5B08CA00CB0101
:10082800CC01CD014A08D6074B08D73D4C08D83D26
:100838004D08D93D0830D035D10DD20DD30D890BD7
:100848001F2C4308CA004A08F1004608883168206E
:10085800833172084001DB007108DA005A08D007BA
:100868005B08D13D0030D23DD33D4208CA004A085A
:10087800F100470888316820833172084001DB00A5
:100888007108DA005A08D0075B08D13D0030D23D24
:10089800D33D0830D035D10DD20DD30D890B4E2C58
:1008A8004208CA004A08F1004608883168208331A6
:1008B80072084001DB007108DA005A08D0075B08AB
:1008C800D13D0030D23DD33D4308CA004A08F1006B
:1008D800480888316820833172084001DB007108BC
:1008E800DA005A08D6075B08D73D0030D83DD93D15
:1008F8004408CA004A08F100470888316820833153
:1009080072084001DB007108DA005A08D6075B0854
:10091800D73D0030D83DD93D4408CA004A08F10007
:10092800480888316820833172084001DB0071086B
:10093800DA005A08CA005B08CB00CC01CD010830A8
:10094800CA35CB0DCC0DCD0D890BA42C4A08D60782
:100958004B08D73D4C08D83D4D08D93D5008CA0032
:100968005108CB005208CC005308CD001830CD36C2
:10097800CC0CCB0CCA0C890BBB2C4A08D6074B08ED
:10098800D73D4C08D83D4D08D93D0830D035D10D5C
:10099800D20DD30D890BCA2C55085407CA00CB01B8
:1009A800CB0D4A08823EDA00FF304B3DDB00D81BF6
:1009B800F22C0130D635D70DD80DD90D890BDE2C88
:1009C800D31B56140130D035D10DD20DD30D890B60
:1009D800E72CFF30DA07FF30DB3DDB2CD401D31FD7
:1009E8000B2DFF305005CA00FF305105CB00FF30FA
:1009F8005205CC007F305305CD004D084C044B0404
:100A08004A0403195618092D0B2DD401D40A540889
:100A18000319342D0130D6070030D73D0030D83DBA
:100A28000030D93D591C342D5608CA005708CB0050
:100A38005808CC005908CD000130CE00CD37CC0C79
:100A4800CB0CCA0CCE0B222D4D08D9004C08D8006F
:100A58004B08D7004A08D6000130DA070030DB3DE2
:100A68005B08803ACA0080304A02031D3D2DFF30E2
:100A78005A02031C492D7F304001D9008030D8002C
:100A88000030D7000030D600732D40015B08803A53
:100A9800CA0080304A02031D532D01305A02031840
:100AA800602D00304001D9000030D8000030D70058
:100AB8000030D600CF01732D40015A08CA004A08F9
:100AC800D500FF30D605FF30D7057F30D805003078
:100AD800D9055518D8175536CA004A08D9004F08FD
:100AE800CA004A08D9045908C5005808C40057085C
:100AF800C3005608C2000800400129088039AE002A
:100B08002E08B6002935AE002E08B800A81B3814E8
:100B1800380803199D2D380A031D9A2D0030A900A5
:100B28000030A8000030A7000030A600A817A901CF
:100B3800A52D0030A9000030A8000030A700003023
:100B4800A6002D088039AE002E08B70037083606F3
:100B5800031D36172D35AE002E08B700AC1B371411
:100B680037080319C52D370A031DC22D0030AD0003
:100B78000030AC000030AB000030AA00AC17AD016B
:100B8800CD2D0030AD000030AC000030AB0000309F
:100B9800AA00380837020318132E361FD72D8030C5
:100BA800AE002E08B6063808AE002E08B900370881
:100BB800AE002E08B8003908AE002E08B700260887
:100BC800AE002E08B9002A08AE002E08A600390883
:100BD800AE002E08AA002708AE002E08B9002B0880
:100BE800AE002E08A7003908AE002E08AB00280872
:100BF800AE002E08B9002C08AE002E08A80039084F
:100C0800AE002E08AC002908AE002E08B9002D0849
:100C1800AE002E08A9003908AE002E08AD00B901B3
:100C28003708AE00AF012F08B10038082E02B00017
:100C3800031CB1033108803AB20080303202031D30
:100C4800272E1A303002031C5B2E40012908280485
:100C5800270426040319322E0130332E0030AE004B
:100C68002E08B9000030A9000030A8000030A70005
:100C78000030A6003708AE002E08B800602E391CD8
:100C88004B2E39360138AE002E08B9004D2E031010
:100C9800B90C2618B9170130AE00A937A80CA70C53
:100CA800A60CAE0B512E0130AE002E08B80740013D
:100CB80037083802031C432E361B912E3808031DB3
:100CC8006E2E0030A9000030A8000030A7000030C8
:100CD800A60008002A08A6072B08A73D2C08A83D4F
:100CE8002D08A93D291C0B2F391C802E39360138B7
:100CF800AE002E08B900822E0310B90C2618B917B9
:100D08000130AE00A937A80CA70CA60CAE0B862E96
:100D18000130AE002E08B8070B2F2908803AAE0024
:100D28002D08803A2E02031DA32E2C082802031D2D
:100D3800A32E2B082702031DA32E2A082602031818
:100D4800DB2EFF30AE00FF30AF00FF30B000FF30C9
:100D5800B10026082A02B20027082B3BB300280856
:100D68002C3BB40029082D3BB5003208AE073308E8
:100D7800AF3D3408B03D3508B13D3108A900300811
:100D8800A8002F08A7002E08A6008030AE002E0865
:100D9800B606B909B90A3908031DE32E0130A607BA
:100DA8000030A73D0030A83D0030A93DE32E2A08B9
:100DB800A6022B08A73B2C08A83B2D08A93B29080D
:100DC800280427042604031D092F3908031D092FA9
:100DD8000030A9000030A8000030A7000030A600AD
:100DE80008000130A635A70DA80DA90D890BF62E10
:100DF800B91B2614391C022F0314032F0310B90D35
:100E080038080319092F0130B802A81FF52EB701B9
:100E1800B91F162F39087F3903192618142F162FD2
:100E2800B701B70A37080319422F0130A607003067
:100E3800A73D0030A83D0030A93D291C422F2608B7
:100E4800AE002708AF002808B0002908B10001301B
:100E5800B200B137B00CAF0CAE0CB20B2D2F31086D
:100E6800A9003008A8002F08A7002E08A600380AF5
:100E78000319422F0130AE002E08B807380A031DA7
:100E88003808031D522F0030A9000030A800003098
:100E9800A7000030A60038080319B601381C562FE1
:100EA800A8175A2F7F30AE002E08A8053836AE0096
:100EB8002E08A900B61F0800A91708004001A000C5
:100EC8002008031DF61F782F7309A2007409A300D8
:100ED8007509A4007609A500A20A0319A30A031933
:100EE800A40A0319A50A802F7608A5007508A4008E
:100EF8007408A3007308A2007608750474047304C8
:100F0800031D8F2F0030F6000030F5000030F4008C
:100F18000030F30008009630F7007708A100FE3093
:100F280025050319B62F0130F7007708A10701300E
:100F3800A536A40CA30CA20C890B9C2F932F01306F
:100F4800F7007708A1070130A2070030A33D003061
:100F5800A43D0030A53D0130A536A40CA30CA20C7D
:100F6800890BB02FFF3025050319C82FA32F023096
:100F78002102031CCA2F0130A1020130A235A30DA2
:100F8800A40DA50D890BC22FA41FBB2F2118D42F88
:100F9800FF30A205FF30A3057F30A405FF30A5056B
:100FA8000310A10C2108F700F801F901FA01183023
:100FB800F735F80DF90DFA0D890BDC2F7708A20427
:100FC8007808A3047908A4047A08A5042008031D56
:100FD800F61FEF2FA5172508F6002408F5002308AB
:100FE800F4002208F3000800F1004E010F1EF92F4B
:080FF800710842019A00080093
:10105200710840019B00720803399C00080050018E
:101062001E1772089B0071089A001E141D08F200D8
:101072001C08F1000800FE0012001E000130FE02F2
:101082000030FF3B7F087E04031900343D284001F5
:10109200191072080F39303843019600191C4F2875
:1010A20071089600191C53284001191408003034A5
:1010B20031343234333434343534363437343834EA
:1010C2003934613462346334643465346634F9002B
:1010D200F501F6017108F300F4017308F7007408D2
:1010E200F800791C78287708F5077808F63D013072
:1010F200F735F80D890B79280310F90C7908031DCF
:1011020072287608F2007508F1000800803040016C
:10111200BD064108A9004008A8003F08A7003E08F4
:10112200A6003D08AD003C08AC003B08AB003A0805
:10113200AA008531802540012908BD002808BC008D
:101142002708BB002608BA0008007408730472045A
:1011520071040319DF28FA01FA0AF41BBC280130D2
:10116200F135F20DF30DF40D890BB1280130F900C0
:101172007908FA07AE2874087802031DCA28730892
:101182007702031DCA2872087602031DCA28710855
:101192007502031CD4287108F5027208F63B730825
:1011A200F73B7408F83B0130F436F30CF20CF10C07
:1011B200890BD5280130FA02031DBC287808F400F7
:1011C2007708F3007608F2007508F1000800400184
:1011D2002C08F4002B08F3002A08F2002908F10079
:1011E2002808F8002708F7002608F6002508F50069
:1011F20089313021883174084001B0007308AF0092
:101202007208AE007108AD002C08F4002B08F30040
:101212002A08F2002908F1002808F8002708F70038
:101222002608F6002508F5008831A62088317408C2
:101232004001B4007308B3007208B2007108B10033
:101242002D30860000308700253084000030850074
:101252000830FB0016001A00FB0B2B290800003097
:101262004001A3000030A2000030A1000030A00025
:10127200740873047204710403197A29A401A40A7C
:10128200F41B4F290130F135F20DF30DF40D890BEA
:1012920044290130F9007908A40741290130A03519
:1012A200A10DA20DA30D890B502974087802031D0C
:1012B200642973087702031D642972087602031DEC
:1012C200642971087502031C6F297108F5027208FE
:1012D200F63B7308F73B7408F83B20140130F436F0
:1012E200F30CF20CF10C890B70290130A402031DDE
:1012F2004F292308F4002208F3002108F2002008F5
:10130200F1000800FE3040019200F83093008F3067
:1013120094009501FC3096007E01B8011030C300A4
:10132200CE010F30A6007D014B08C0391738CB0023
:1013320042019D171E129E161D161E159F15003086
:101342009C0015309B0017307E01990018309A00DE
:1013520043011A08F03901389A009A161A1219171D
:10136200400119147D011108C039043891004B0164
:101372001E16F0309E051F309F051F16F0309F0588
:1013820044011108F03909389100CF308E050E154D
:101392008F1352018C160C168C170C08FC3902386C
:1013A2008C0041011D149E171E088F3960389E0063
:1013B20003309E040800031040015E0D5F0DE00043
:1013C2006008FC007C08031DEF290030DF000030BC
:1013D200DE000030DD000030DC0008005C08E000C8
:1013E2005D08E1005E08E2005F08E3001F30E336BB
:1013F200E20CE10CE00C890BF8296008E4006408B7
:10140200FB00DE17FF30DC05FF30DD05FF30DE05B7
:101412000030DF059630FC02FC1F222A7C08803A4D
:10142200973E031CE6290130DF36DE0CDD0CDC0CB6
:10143200890B152A0130E0006008FC070319332AE2
:10144200142A20307C020318E6297C080319332A67
:101452000130DC35DD0DDE0DDF0D890B2A2A01306E
:10146200FC02262A7B0803190800DC09DD09DE09D3
:10147200DF09DC0A0319DD0A0319DE0A0319DF0A90
:1014820008004001B9013B30C5009A30C400CA309F
:10149200C3000030C2004508031D592A4408031D39
:1014A200592A4308031D592A02304202031CB32A57
:1014B2003808A8003708A7003608A6003508A50096
:1014C2004508AC004408AB004308AA004208A90042
:1014D2008831E8208A3140012530860000308700BB
:1014E2003A308400003085000830FC0016001A00F3
:1014F200FC0B772A3D083C043B043A0403193908E3
:1015020003198A2AB901B90A3A08303E8731F82705
:101512008A3104303A3E86008701403F4001B500DF
:10152200413FB600423FB700433FB8000030F400ED
:101532000030F3000030F2000A30F1004508F800F4
:101542004408F7004308F6004208F50089313021CB
:101552008A3174084001C5007308C4007208C300D0
:1015620071084B2A3508303E8731F82708008B1363
:10157200400118101A121A169A169A124B019E134B
:101582009D019C0144010E108D018C010E144B0132
:101592009E1740010C1003304001A1008A30A000C8
:1015A2005530890BD22AA00BD22AA10BD22A400194
:1015B2000C144B019E1344010E1040010E080F390A
:1015C200A000A101A201A3014B011C084001A4003B
:1015D200A501A601A7010430A435A50DA60DA70DEE
:1015E200890BED2A4B011D084001A800A901AA019F
:1015F200AB010C30A835A90DAA0DAB0D890BFB2A46
:1016020044010C084001AC00AD01AE01AF01143041
:10161200AC35AD0DAE0DAF0D890B092B44010D0894
:101622004001B000B101B201B3011C30B035B10DBF
:10163200B20DB30D890B172B3008AC043108AD0481
:101642003208AE043308AF042C08A8042D08A904FC
:101652002E08AA042F08AB042808A4042908A5040C
:101662002A08A6042B08A70420082404F100210854
:101672002504F20022082604F30023082704F400BC
:101682000800893183218B318B31FD238B3140015D
:101692006A084101D100400169084101D0005008A7
:1016A200283ED600F130513DD7005708803AC60097
:1016B20081304602031D5F2B90305602031C662BBD
:1016C2008F304101D6000130D7004101D71F6B2B6B
:1016D200D601D7015708C7005608C600C635C70D40
:1016E200D030C8002430C9004608480786004708A1
:1016F200493D8700403FD200413FD3005308F200EA
:101702005208F100883148208B31FF30F10003305C
:10171200F200883129208B3100304001B8000030BE
:10172200B7000330B600FF30B5008A3142228B3158
:1017320020308731F8278B31410152084001B50032
:10174200410153084001B600B701B8018A31422273
:101752008B3120308731F8278B318A31B8228B3197
:1017620074084101CD007308CC007208CB007108E7
:10177200CA004D084001B80041014C084001B700C1
:1017820041014B084001B60041014A084001B50041
:101792008A3142228B3120308731F8278B318C31CC
:1017A200E1248B3140016A084101CF004001690800
:1017B2004101CE004E084001B50041014F084001F1
:1017C200B600B701B8018A3142228B31203087310D
:1017D200F8278B31410150084001B5004101510801
:1017E2004001B600B701B8018A3142228B310A307A
:1017F2008731F8278B31452B41011D0803393038D9
:101802009D0007304001EB007D30890B062CEB0B6D
:10181200062C00304101B6000030B5000030B400A3
:101822000030B300B7019D149D18152C1C08B2009E
:101832001B08B100C3304001A900FA30A8000030F3
:10184200A7000030A6004430DF007F30DE00C03049
:10185200DD000030DC001930F1008130F200883107
:1018620030208B3171084001EB007208EC00ED0171
:10187200EE016E08F6006D08F5006C08F4006B08C6
:10188200F3000030873162278B3176084001C500B2
:101892007508C4007408C3007308C200410131080E
:1018A200F3003208F400F501F601003087316227B7
:1018B2008B3176084001C9007508C8007408C7005A
:1018C2007308C600833154238B3140014508E3007D
:1018D2004408E2004308E1004208E0008E31282675
:1018E2008B3140015F08AD005E08AC005D08AB00C3
:1018F2005C08AA00853180258B314001290841010D
:10190200B000400128084101AF0040012708410111
:10191200AE00400126084101AD0030084001A90097
:1019220041012F084001A80041012E084001A700F3
:1019320041012D084001A600410136084001AD00D9
:10194200410135084001AC00410134084001AB00BF
:10195200410133084001AA00853180258B314001C5
:1019620029084101B600400128084101B5004001A3
:1019720027084101B400400126084101B3000130AB
:101982004001EB006B084101B7070A303702031C24
:10199200142C36084001DF00410135084001DE0009
:1019A200410134084001DD00410133084001DC00FF
:1019B2008931DC2140015D08EA005C08E900080089
:1019C20000304101C4000030C3000030C2000030CA
:1019D200C1001D080339F0389D0007304101AD00F8
:1019E2007D30890BF22CAD0BF22C4101C5019D1407
:1019F2009D18F92C1C08BE001B08BD00C530400113
:101A0200DF006B30DE008B30DD00B630DC001930D9
:101A1200F1008130F200883130208C3171084101AF
:101A2200AD007208AE00AF01B0013008F6002F0819
:101A3200F5002E08F4002D08F300003087316227EC
:101A42008C3176084001C5007508C4007408C300D3
:101A52007308C2001630F1008130F2008831302064
:101A62008C3171084101B1007208B200B301B401B6
:101A72003408F6003308F5003208F4003108F300A8
:101A82000030873162278C3176084001BD0075082D
:101A9200BC007408BB007308BA0041013D08F300A2
:101AA2003E08F400F501F6010030873162278C31DF
:101AB20076084001C1007508C0007408BF007308B1
:101AC200BE00883187208C3140013D08C9003C08A6
:101AD200C8003B08C7003A08C600833154238C3142
:101AE20040014508E3004408E2004308E1004208DF
:101AF200E0008E3128268C3140015F084101BC0094
:101B020040015E084101BB0040015D084101BA008D
:101B120040015C084101B90042304001A900B430E3
:101B2200A8000030A7000030A60041013C08400197
:101B3200AD0041013B084001AC0041013A084001BF
:101B4200AB00410139084001AA00853180258C3162
:101B5200400129084101B800400128084101B700AD
:101B6200400127084101B600400126084101B500A5
:101B720038084001A900410137084001A80041018D
:101B820036084001A700410135084001A600410185
:101B920044084001AD00410143084001AC0041014D
:101BA20042084001AB00410141084001AA008531D1
:101BB20080258C31400129084101C40040012808D8
:101BC2004101C300400127084101C200400126082B
:101BD2004101C1000130AD002D08C5070A304502A0
:101BE200031CF82C44084001C9004101430840018C
:101BF200C800410142084001C700410141084001BB
:101C0200C6004130C5002030C4000030C30000309F
:101C1200C200833154238C3140014508DF0044085F
:101C2200DE004308DD004208DC008931DC2140018E
:101C32005D084101C00040015C084101BF0040084D
:101C42004001EA0041013F084001E900080040016B
:101C520063088039E40064084101A400400163354F
:101C6200E40064084101AB004001E21F3A2E410149
:101C72002B1441012B0803194E2E2B0A031D4A2E49
:101C820000304001E3000030E2000030E1000030AB
:101C9200E0004001E217E301572E00304001E3006B
:101CA2000030E2000030E1000030E0005F088039DF
:101CB200E40064084101A40640015F35E4006408C1
:101CC2004101AC004001DE1F682E41012C1441018C
:101CD2002C0803197C2E2C0A031D782E003040019B
:101CE200DF000030DE000030DD000030DC004001AB
:101CF200DE17DF01852E00304001DF000030DE00FC
:101D02000030DD000030DC005F085E045D045C042E
:101D1200031DA62E0030E3000030E2000030E10097
:101D22000030E0008030E2047F30E3044101240807
:101D32004001E4006408E3046308DF006208DE0097
:101D42006108DD006008DC00080041012B08031D6A
:101D5200B42E00304001DF000030DE000030DD0034
:101D62000030DC0008002B084001E400E5016508B2
:101D7200E70041012C0840016402E600031CE7036E
:101D820066087F3E4101A50000304001673D4101E8
:101D9200A600400163084101A3004001620841011D
:101DA200A200400161084101A10040016008410117
:101DB200A00000304001E3000030E2000030E1000A
:101DC2000030E00000304101AA000030A9000030DC
:101DD200A8000030A700AC011A302C020318402FD3
:101DE2002C080319102F0130A035A10DA20DA30D4F
:101DF200890BF52E01304001E035E10DE20DE30DD6
:101E0200890BFC2E4101AA1F082F400160140130EA
:101E12004101A735A80DA90DAA0D890B092F400173
:101E22005F0841012302031D262F40015E08410184
:101E32002202031D262F40015D0841012102031DDC
:101E4200262F40015C0841012002031C392F2A176A
:101E520040015C084101A00240015D084101A13B33
:101E620040015E084101A23B40015F084101A33BE2
:101E720001304001E40064084101AC07ED2E230863
:101E8200220421042004031D27144001E21B622FB7
:101E92000130E035E10DE20DE30D890B4A2F4101DE
:101EA200AA1F552F4001601401304101A735A80D2A
:101EB200A90DAA0D890B562FFF30A507FF30A63DAD
:101EC200462F4101AC01AA1F842FFF302705400194
:101ED200E400FF30410128054001E500FF304101E7
:101EE20029054001E6007F3041012A054001E70053
:101EF200670866046504640403196018812F842F3F
:101F02004101AC01AC0A41012C080319B02F013088
:101F12004001E0070030E13D0030E23D0030E33DAA
:101F2200631CB02F6008E4006108E5006208E60067
:101F32006308E7000130E800E737E60CE50CE40C43
:101F4200E80B9D2F6708E3006608E2006508E100E0
:101F52006408E00001304101A5070030A63D4101BF
:101F62002608803A4001E40080306402031DBC2F41
:101F7200FF3041012502031CCC2FFF304101A50097
:101F82000030A60000304001E3000030E2000030E3
:101F9200E1000030E00041012608803A4001E400FF
:101FA20080306402031DD82F01304101250203183D
:101FB200E82F4101A501A60100304001E3000030F5
:101FC200E2000030E1000030E0004101A4014101E3
:101FD20025084001E40064084101AB002B1CF42FEA
:101FE2004001E217F92F7F304001E4006408E20566
:0E1FF20041012B364001E4006408E300972E05
:020000040001F9
:0A000E00FF3FFF3F9F3FFF3FFF3F12
:00000001FF
